S0110000737465726F776E696B2E737265632D
S113000012C02CC02BC02AC029C028C027C026C0BB
S113001025C0D6C323C022C021C020C027C41EC00F
S11300201DC01CC01BC011241FBECFE5D4E0DEBF21
S1130030CDBF10E0A0E6B0E0ECE3FAE002C005902A
S11300400D92AA37B107D9F720E0AAE7B0E001C0C2
S11300501D92A338B207E1F710D3EEC4D1CF82E0EA
S11300608FBD88E18EBD81EE94E097BD86BD80E7AB
S113007092E09BBD8ABD089587B1836C87B986B130
S1130080886886B9089583E083BF81E089BF789446
S113009008958F929F92AF92BF92CF92DF92EF9288
S11300A0FF92CF936B017C01C42F84E6C816D10460
S11300B0E104F10468F4109280008AE0C816D104C7
S11300C0E104F10490F4109280001092810022C0A7
S11300D0C701B60124E630E040E050E0FCD3F9016A
S11300E0E859FF4F8081809380008AE0882E912C0C
S11300F0A12CB12CC701B601A5019401ECD3CA010E
S1130100B901A5019401E7D3FB01E859FF4F8081B0
S113011080938100C701B6012AE030E040E050E05E
S1130120DAD3FB01E859FF4F808180938200C2300B
S113013051F0C33071F0C13089F48091800080683F
S1130140809380000BC0809181008068809381003F
S113015005C080918200806880938200CF91FF90D7
S1130160EF90DF90CF90BF90AF909F908F900895C5
S113017082E087BB87B3806C87BB81E088BB87E064
S113018084BB87E385BB8FEF81BB12BA08958111CD
S113019004C082E88FBD8AE18EBD089581E080931A
S11301A07B0086E020E4E7EAF1E63197F1F700C04E
S11301B0000098B3922798BB8150A9F70895109234
S11301C07B0086E0E7EAF1E63197F1F700C0000032
S11301D098B3905898BB8150A9F708951DBC1CBCD6
S11301E087E893E10197F1F700C0000080917B005C
S11301F0CEDF80E090E0DC01B0990EC00196A11D35
S1130200B11D813221EA920727E0A207B105A1F7C7
S113021081E080937D001DC081319742A105B10525
S1130220C0F480917C008F5F80937C00853099F4CA
S113023080917B00882311F0C2DF0BC08EB58D7FC7
S11302408EBD8FB58F778FBD1DBC1CBC81E088BB74
S1130250A5DF10927C008EB58D7F8EBD8FB58F7714
S11302608FBD1DBC1CBC81E088BB80E797E19093E7
S113027079008093780008952F923F924F925F9275
S11302806F927F928F929F92AF92BF92CF92DF92A2
S1130290EF92FF920F931F93CF93DF93CDB7DEB707
S11302A027970FB6F894DEBF0FBECDBF7E836D8354
S11302B010927F0010927E00282F30E040E050E042
S11302C060E070E080E090E0A0906000B090610099
S11302D0C0906200D0906300E0906400F0906500EC
S11302E0009166001091670089D3D22EE32EF42E7C
S11302F0052F162FB72FF82FE92FA4E691D309F075
S113030088F4D0926000E0926100F0926200009361
S1130310630010936400B0936500F0936600E0936B
S1130320670011C081E08093600010926100109218
S113033062001092630010926400109265001092A3
S11303406600109267006090600070906100809079
S1130350620090906300B0916400A0916500E09108
S11303606600F09167009301A4016B2F7A2FCF01EF
S113037006E02BD353016401EB2EFA2E8F0147D3F1
S113038001E023D30E2F43D32983232E342E452E6D
S1130390562E7A838B839C83432D542D652D02E046
S11303A014D359016A017B018C012981322D432D1B
S11303B0542D652D7A818B819C8120D301E005D356
S11303C053016401EB2EFA2E8F0121D3E4E6AE2E05
S11303D0B12CC12CD12CE12CF12C00E010E0ABD2DB
S11303E03BBD2ABD40E0B301C40153DE80E090E090
S11303F02D813E818217930741F0E9EFF0E03197B8
S1130400F1F700C000000196F3CF27960FB6F894D9
S1130410DEBF0FBECDBFDF91CF911F910F91FF9033
S1130420EF90DF90CF90BF90AF909F908F907F9090
S11304306F905F904F903F902F9008952F923F922E
S11304404F925F926F927F928F929F92AF92BF92E0
S1130450CF92DF92EF92FF920F931F93CF93DF938C
S1130460CDB7DEB727970FB6F894DEBF0FBECDBF6A
S1130470A82E7E836D8310927F0010927E002091BF
S1130480600030916100409162005091630060917E
S11304906400709165008091660090916700B12CB2
S11304A0C12CD12CE12CF12C00E010E0B0D2D22EE2
S11304B0E32EF42E052F162FB72FF82FE92FA0E0E7
S11304C0AFD289F0D0926000E0926100F0926200B5
S11304D00093630010936400B0936500F09366008A
S11304E0E093670011C084E680936000109261007D
S11304F010926200109263001092640010926500E2
S113050010926600109267002091600030916100A3
S113051040916200509163006091640070916500A5
S11305208091660090916700A4E67AD291F088F0F9
S113053081E080936000109261001092620010923A
S1130540630010926400109265001092660010928D
S113055067006090600070906100809062009090ED
S11305606300B0916400A0916500E0916600F09191
S113057067009301A4016B2F7A2FCF0106E025D2E7
S113058053016401EB2EFA2E8F0141D201E01DD2FA
S11305900E2F3DD22983232E342E452E562E7A83B8
S11305A08B839C83432D542D652D02E00ED259017B
S11305B06A017B018C012981322D432D542D652D37
S11305C07A818B819C811AD201E0FFD153016401AD
S11305D0EB2EFA2E8F011BD2F4E6AF2EB12CC12CD8
S11305E0D12CE12CF12C00E010E0A5D13BBD2ABDBB
S11305F040E0B301C4014DDD80E090E02D813E81F7
S11306008217930741F0E9EFF0E03197F1F700C06A
S113061000000196F3CF27960FB6F894DEBF0FBE05
S1130620CDBFDF91CF911F910F91FF90EF90DF909D
S1130630CF90BF90AF909F908F907F906F905F907E
S11306404F903F902F900895109280001092810057
S113065010928200089583B78C7F83BF89B78E7F01
S113066089BFF2DF2FE986E891E021508040904075
S1130670E1F700C00000369A0895F1DCFDDC03DDEB
S113068077DDC1E0E1DF8FE493EC0197F1F700C07F
S11306900000E1DF9FE3EDE0F3E09150E040F04043
S11306A0E1F700C0000080917D00813019F4B09919
S11306B010927D00B0990AC080917D00811106C01E
S11306C08DDD80917B00811101C0C5DF83B38295EC
S11306D081708C1781F180917B0081112CC087EA95
S11306E091E60197F1F700C0000083B3807359F4D9
S11306F0B2DF83B38073E9F3EFE4F3EC3197F1F7FE
S113070000C0000018C064E170E081E0B5DD80E95C
S113071091E09C9909C0E9EFF0E03197F1F700C04E
S1130720000001970097A9F79C9905C064E670E062
S113073082E0A2DDF9CF83B385FB882780F98C178B
S113074081F180917B0081112CC087EA91E60197A9
S1130750F1F700C0000083B3807359F47CDF83B3E6
S11307608073E9F3EFE4F3EC3197F1F700C0000094
S113077018C064E170E081E061DE80E991E09D9958
S113078009C0E9EFF0E03197F1F700C000000197EC
S11307900097A9F79D9905C064E670E082E04EDEFB
S11307A0F9CF8091780090917900009719F4109214
S11307B07C0068CF0197909379008093780062CF92
S11307C01F920F920FB60F9211242F933F934F93C2
S11307D05F936F937F938F939F93AF93BF93EF93A5
S11307E0FF9380917A00813089F058F08230C9F407
S11307F083EF85BB80918200809582BB10927A0042
S113080010C086EF85BB8091800004C085EF85BB56
S113081080918100809582BB80917A008F5F809364
S11308207A0089EA82BF80917E0090917F00803DAA
S1130830924010F009DF09C080917E0090917F0002
S1130840019690937F0080937E00FF91EF91BF917A
S1130850AF919F918F917F916F915F914F913F9154
S11308602F910F900FBE0F901F9018951F920F920B
S11308700FB60F9211242F933F934F935F936F936F
S11308807F938F939F93AF93BF93EF93FF9324B181
S113089035B1A4EFB1E041D0AAE09695879577955C
S11308A06795AA95D1F741E0F4DB10927F0010928E
S11308B07E00E9DBFF91EF91BF91AF919F918F9102
S11308C07F916F915F914F913F912F910F900FBE48
S11308D00F901F901895A1E21A2EAA1BBB1BFD01B5
S11308E00DC0AA1FBB1FEE1FFF1FA217B307E4070B
S11308F0F50720F0A21BB30BE40BF50B661F771F63
S1130900881F991F1A9469F7609570958095909542
S11309109B01AC01BD01CF010895A29FB001B39F1B
S1130920C001A39F01D0B29F700D811D1124911DA0
S11309300895689401C0E8948F929F92CF93DF93B7
S113094005D0DF91CF919F908F90089588249924AA
S1130950F401E401B0E41B2ED4019D158E049F0420
S1130960E007F10738F4FC014B01CA01B901AD01FC
S11309709E011694220F331F441F551F661F771FB5
S1130980881F991F881C991CEE1FFF1FCC1FDD1F99
S1130990AA1FBB1F8A149B04EC05FD05CE05DF05C9
S11309A0A007B10748F08A189B08EC09FD09CE0995
S11309B0DF09A00BB10B21601A94E1F62EF4940127
S11309C0AF01BE01CD01000C08950F93083090F0E3
S11309D0982F872F762F652F542F432F322F2227BE
S11309E00850F4CF220F331F441F551F661F771F73
S11309F0881F991F0A95B2F70F9108952A0D3B1D80
S1130A004C1D5D1D6E1D7F1D801F911F08952A19A9
S1130A103B094C095D096E097F09800B910B089510
S1130A200024A7FD00942A173005400550056005F1
S10F0A307005800590050895F894FFCF30
S1130A3C32000000000000003F065B4F666D7D072E
S10D0A4C7F6F777C395E79717017B3
S9030000FC
